{
  "contractName": "OrderRegistry",
  "abi": [
    {
      "anonymous": false,
      "inputs": [
        {
          "indexed": false,
          "name": "orderno",
          "type": "bytes32"
        }
      ],
      "name": "OrderGenerated",
      "type": "event",
      "signature": "0xbf4b50110ff49870d120f69308d727835606fe2745f3b22bd37de1da38ff622d"
    },
    {
      "anonymous": false,
      "inputs": [
        {
          "indexed": false,
          "name": "orderno",
          "type": "bytes32"
        }
      ],
      "name": "MfgTrigger",
      "type": "event",
      "signature": "0xe1a460563475c03a24c1d1d0dc37d871c8986d50bbd13bd0c9ffb4ee87e178bd"
    },
    {
      "anonymous": false,
      "inputs": [
        {
          "indexed": false,
          "name": "orderno",
          "type": "bytes32"
        }
      ],
      "name": "SupplyTrigger",
      "type": "event",
      "signature": "0x911e38a9d79e3b7936bbdf6e96ac0713328f186e9f64a37f58a94eb57a4488ba"
    },
    {
      "anonymous": false,
      "inputs": [
        {
          "indexed": false,
          "name": "orderno",
          "type": "bytes32"
        },
        {
          "indexed": false,
          "name": "category",
          "type": "uint256"
        },
        {
          "indexed": false,
          "name": "report",
          "type": "bytes32"
        }
      ],
      "name": "ReportSubmit",
      "type": "event",
      "signature": "0xed3397710ba7c058b96bed4cfd08ae2bbf7dbee3835916bd4865f7d68eb5d805"
    },
    {
      "constant": false,
      "inputs": [
        {
          "name": "orderno",
          "type": "bytes32"
        },
        {
          "name": "product",
          "type": "bytes32"
        },
        {
          "name": "temp",
          "type": "bytes32"
        },
        {
          "name": "value",
          "type": "bytes32"
        },
        {
          "name": "quantity",
          "type": "bytes32"
        },
        {
          "name": "delivery",
          "type": "bytes32"
        }
      ],
      "name": "createOrder",
      "outputs": [],
      "payable": false,
      "stateMutability": "nonpayable",
      "type": "function",
      "signature": "0x99ce246e"
    },
    {
      "constant": false,
      "inputs": [
        {
          "name": "orderno",
          "type": "bytes32"
        },
        {
          "name": "name",
          "type": "bytes32"
        },
        {
          "name": "delivery",
          "type": "bytes32"
        },
        {
          "name": "value",
          "type": "bytes32"
        },
        {
          "name": "quantity",
          "type": "bytes32"
        }
      ],
      "name": "setDistValues",
      "outputs": [],
      "payable": false,
      "stateMutability": "nonpayable",
      "type": "function",
      "signature": "0x1a8319aa"
    },
    {
      "constant": false,
      "inputs": [
        {
          "name": "orderno",
          "type": "bytes32"
        },
        {
          "name": "name",
          "type": "bytes32"
        },
        {
          "name": "material",
          "type": "bytes32"
        },
        {
          "name": "delivery",
          "type": "bytes32"
        },
        {
          "name": "value",
          "type": "bytes32"
        },
        {
          "name": "quantity",
          "type": "bytes32"
        }
      ],
      "name": "setMfgValues",
      "outputs": [],
      "payable": false,
      "stateMutability": "nonpayable",
      "type": "function",
      "signature": "0x8e27342b"
    },
    {
      "constant": false,
      "inputs": [
        {
          "name": "orderno",
          "type": "bytes32"
        },
        {
          "name": "category",
          "type": "uint256"
        },
        {
          "name": "report",
          "type": "bytes32"
        }
      ],
      "name": "setReport",
      "outputs": [],
      "payable": false,
      "stateMutability": "nonpayable",
      "type": "function",
      "signature": "0xd0025932"
    },
    {
      "constant": true,
      "inputs": [
        {
          "name": "orderno",
          "type": "bytes32"
        },
        {
          "name": "category",
          "type": "uint256"
        }
      ],
      "name": "getReport",
      "outputs": [
        {
          "name": "",
          "type": "bytes32"
        }
      ],
      "payable": false,
      "stateMutability": "view",
      "type": "function",
      "signature": "0x6dc08264"
    },
    {
      "constant": true,
      "inputs": [
        {
          "name": "orderno",
          "type": "bytes32"
        }
      ],
      "name": "fetchInitialDetails",
      "outputs": [
        {
          "name": "",
          "type": "bytes32"
        },
        {
          "name": "",
          "type": "bytes32"
        },
        {
          "name": "",
          "type": "bytes32"
        },
        {
          "name": "",
          "type": "bytes32"
        },
        {
          "name": "",
          "type": "bytes32"
        }
      ],
      "payable": false,
      "stateMutability": "view",
      "type": "function",
      "signature": "0xac2b6707"
    },
    {
      "constant": true,
      "inputs": [
        {
          "name": "orderno",
          "type": "bytes32"
        }
      ],
      "name": "getDistValues",
      "outputs": [
        {
          "name": "",
          "type": "bytes32"
        },
        {
          "name": "",
          "type": "bytes32"
        },
        {
          "name": "",
          "type": "bytes32"
        },
        {
          "name": "",
          "type": "bytes32"
        }
      ],
      "payable": false,
      "stateMutability": "view",
      "type": "function",
      "signature": "0x3a1c9b8b"
    },
    {
      "constant": true,
      "inputs": [
        {
          "name": "orderno",
          "type": "bytes32"
        }
      ],
      "name": "getMfgDetails",
      "outputs": [
        {
          "name": "",
          "type": "bytes32"
        },
        {
          "name": "",
          "type": "bytes32"
        },
        {
          "name": "",
          "type": "bytes32"
        },
        {
          "name": "",
          "type": "bytes32"
        },
        {
          "name": "",
          "type": "bytes32"
        }
      ],
      "payable": false,
      "stateMutability": "view",
      "type": "function",
      "signature": "0xe2188d13"
    }
  ],
  "bytecode": "0x608060405234801561001057600080fd5b5061088a806100206000396000f3fe608060405234801561001057600080fd5b50600436106100a5576000357c01000000000000000000000000000000000000000000000000000000009004806399ce246e1161007857806399ce246e14610203578063ac2b670714610263578063d0025932146102c1578063e2188d1314610303576100a5565b80631a8319aa146100aa5780633a1c9b8b146101005780636dc08264146101575780638e27342b146101a3575b600080fd5b6100fe600480360360a08110156100c057600080fd5b810190808035906020019092919080359060200190929190803590602001909291908035906020019092919080359060200190929190505050610361565b005b61012c6004803603602081101561011657600080fd5b8101908080359060200190929190505050610407565b6040518085815260200184815260200183815260200182815260200194505050505060405180910390f35b61018d6004803603604081101561016d57600080fd5b810190808035906020019092919080359060200190929190505050610474565b6040518082815260200191505060405180910390f35b610201600480360360c08110156101b957600080fd5b81019080803590602001909291908035906020019092919080359060200190929190803590602001909291908035906020019092919080359060200190929190505050610512565b005b610261600480360360c081101561021957600080fd5b810190808035906020019092919080359060200190929190803590602001909291908035906020019092919080359060200190929190803590602001909291905050506105d3565b005b61028f6004803603602081101561027957600080fd5b8101908080359060200190929190505050610694565b604051808681526020018581526020018481526020018381526020018281526020019550505050505060405180910390f35b610301600480360360608110156102d757600080fd5b8101908080359060200190929190803590602001909291908035906020019092919050505061071d565b005b61032f6004803603602081101561031957600080fd5b81019080803590602001909291905050506107d5565b604051808681526020018581526020018481526020018381526020018281526020019550505050505060405180910390f35b836000808781526020019081526020016000206002018190555082600080878152602001908152602001600020600d018190555081600080878152602001908152602001600020600a018190555080600080878152602001908152602001600020600701819055507fe1a460563475c03a24c1d1d0dc37d871c8986d50bbd13bd0c9ffb4ee87e178bd856040518082815260200191505060405180910390a15050505050565b60008060008060008086815260200190815260200160002060020154600080878152602001908152602001600020600d0154600080888152602001908152602001600020600a01546000808981526020019081526020016000206007015493509350935093509193509193565b6000600182141561049c5760008084815260200190815260200160002060050154905061050c565b60028214156104c25760008084815260200190815260200160002060040154905061050c565b60038214156104e85760008084815260200190815260200160002060030154905061050c565b7f756e646566696e6564000000000000000000000000000000000000000000000090505b92915050565b846000808881526020019081526020016000206001018190555082600080888152602001908152602001600020600c01819055508160008088815260200190815260200160002060090181905550806000808881526020019081526020016000206006018190555083600080888152602001908152602001600020601101819055507f911e38a9d79e3b7936bbdf6e96ac0713328f186e9f64a37f58a94eb57a4488ba866040518082815260200191505060405180910390a1505050505050565b846000808881526020019081526020016000206010018190555083600080888152602001908152602001600020600f018190555082600080888152602001908152602001600020600b0181905550816000808881526020019081526020016000206008018190555080600080888152602001908152602001600020600e01819055507fbf4b50110ff49870d120f69308d727835606fe2745f3b22bd37de1da38ff622d866040518082815260200191505060405180910390a1505050505050565b600080600080600080600087815260200190815260200160002060100154600080888152602001908152602001600020600f0154600080898152602001908152602001600020600b01546000808a8152602001908152602001600020600801546000808b8152602001908152602001600020600e01549450945094509450945091939590929450565b60018214156107415780600080858152602001908152602001600020600501819055505b60028214156107655780600080858152602001908152602001600020600401819055505b60038214156107895780600080858152602001908152602001600020600301819055505b7fed3397710ba7c058b96bed4cfd08ae2bbf7dbee3835916bd4865f7d68eb5d80583838360405180848152602001838152602001828152602001935050505060405180910390a1505050565b600080600080600080600087815260200190815260200160002060010154600080888152602001908152602001600020600c0154600080898152602001908152602001600020600901546000808a8152602001908152602001600020600601546000808b815260200190815260200160002060110154945094509450945094509193959092945056fea165627a7a72305820d3cc3c1172c041d71c001bbd16c21cca9ec4682d2baab1ae2e4b8c5158a503f10029",
  "source": "pragma solidity >=0.4.22 <0.6.0;\n\ncontract OrderRegistry {\n  struct Order {\n    bytes32 supplier_name;\n    bytes32 mfg_name;\n    bytes32 dist_name;\n\n    bytes32 supplier_report;\n    bytes32 mfg_report;\n    bytes32 dist_report;\n\n    bytes32 supplier_quantity;\n    bytes32 mfg_quantity;\n    bytes32 dist_quantity;\n\n    bytes32 supplier_value;\n    bytes32 mfg_value;\n    bytes32 dist_value;\n\n    bytes32 supplier_date;\n    bytes32 mfg_date;\n    bytes32 dist_date;\n\n    bytes32 thresh_temp;\n    bytes32 product_name;\n    bytes32 raw_material_name;\n\n  }\n\n  mapping(bytes32=>Order) registry;\n\n  event OrderGenerated(bytes32 orderno);\n  event MfgTrigger(bytes32 orderno);\n  event SupplyTrigger(bytes32 orderno);\n  event ReportSubmit(bytes32 orderno, uint category, bytes32 report);\n\n  function createOrder(bytes32 orderno, bytes32 product, bytes32 temp, bytes32 value, bytes32 quantity, bytes32 delivery) public {\n    registry[orderno].product_name = product;\n    registry[orderno].thresh_temp = temp;\n    registry[orderno].dist_value = value;\n    registry[orderno].dist_quantity = quantity;\n    registry[orderno].dist_date = delivery;\n    emit OrderGenerated(orderno);\n  }\n\n  function setDistValues(bytes32 orderno, bytes32 name, bytes32 delivery, bytes32 value, bytes32 quantity) public  {\n    registry[orderno].dist_name = name;\n    registry[orderno].mfg_date = delivery;\n    registry[orderno].mfg_value = value;\n    registry[orderno].mfg_quantity = quantity;\n    emit MfgTrigger(orderno);\n  }\n\n  function setMfgValues(bytes32 orderno, bytes32 name, bytes32 material, bytes32 delivery, bytes32 value, bytes32 quantity) public {\n    registry[orderno].mfg_name = name;\n    registry[orderno].supplier_date = delivery;\n    registry[orderno].supplier_value = value;\n    registry[orderno].supplier_quantity = quantity;\n    registry[orderno].raw_material_name = material;\n    emit SupplyTrigger(orderno);\n  }\n\n  function setReport(bytes32 orderno, uint category, bytes32 report) public {\n    if(category == 1) {\n      registry[orderno].dist_report = report;\n    }\n    if( category == 2 ) {\n      registry[orderno].mfg_report = report;\n    }\n    if( category == 3 ) {\n      registry[orderno].supplier_report = report;\n    }\n    emit ReportSubmit(orderno, category, report);\n  }\n\n  function getReport(bytes32 orderno, uint category) public view returns(bytes32) {\n    if(category == 1) {\n      return registry[orderno].dist_report;\n    }\n    if( category == 2 ) {\n      return registry[orderno].mfg_report;\n    }\n    if( category == 3 ) {\n      return registry[orderno].supplier_report;\n    }\n    return \"undefined\";\n  }\n\n  function fetchInitialDetails(bytes32 orderno) public view returns(bytes32, bytes32, bytes32, bytes32, bytes32) {\n    return (registry[orderno].product_name,\n            registry[orderno].thresh_temp,\n            registry[orderno].dist_value,\n            registry[orderno].dist_quantity,\n            registry[orderno].dist_date);\n  }\n\n  function getDistValues(bytes32 orderno) public view returns(bytes32, bytes32, bytes32, bytes32) {\n    return (registry[orderno].dist_name, registry[orderno].mfg_date,\n            registry[orderno].mfg_value, registry[orderno].mfg_quantity);\n  }\n\n  function getMfgDetails(bytes32 orderno) public view returns(bytes32, bytes32, bytes32, bytes32, bytes32) {\n    return (registry[orderno].mfg_name,\n    registry[orderno].supplier_date,\n    registry[orderno].supplier_value,\n    registry[orderno].supplier_quantity,\n    registry[orderno].raw_material_name);\n  }\n\n}\n",
  "sourcePath": "/home/user/Project_main/secretWeapon/contracts/OrderRegistry.sol",
  "compiler": {
    "name": "solc",
    "version": "0.5.3+commit.10d17f24.Emscripten.clang"
  },
  "schemaVersion": "3.0.0-beta.2",
  "updatedAt": "2019-06-13T13:27:33.303Z",
  "devdoc": {
    "methods": {}
  },
  "userdoc": {
    "methods": {}
  }
}