{
  "contractName": "UserRegistry",
  "abi": [
    {
      "constant": true,
      "inputs": [],
      "name": "owner",
      "outputs": [
        {
          "name": "",
          "type": "address"
        }
      ],
      "payable": false,
      "stateMutability": "view",
      "type": "function",
      "signature": "0x8da5cb5b"
    },
    {
      "constant": false,
      "inputs": [
        {
          "name": "addr",
          "type": "bytes32"
        },
        {
          "name": "role",
          "type": "bytes32"
        }
      ],
      "name": "setRole",
      "outputs": [],
      "payable": false,
      "stateMutability": "nonpayable",
      "type": "function",
      "signature": "0x586f86ba"
    },
    {
      "constant": true,
      "inputs": [
        {
          "name": "addr",
          "type": "bytes32"
        }
      ],
      "name": "getRole",
      "outputs": [
        {
          "name": "",
          "type": "bytes32"
        }
      ],
      "payable": false,
      "stateMutability": "view",
      "type": "function",
      "signature": "0x6e8eb7bc"
    }
  ],
  "bytecode": "0x6080604052336000806101000a81548173ffffffffffffffffffffffffffffffffffffffff021916908373ffffffffffffffffffffffffffffffffffffffff16021790555034801561005057600080fd5b50610277806100606000396000f3fe608060405234801561001057600080fd5b506004361061005e576000357c010000000000000000000000000000000000000000000000000000000090048063586f86ba146100635780636e8eb7bc1461009b5780638da5cb5b146100dd575b600080fd5b6100996004803603604081101561007957600080fd5b810190808035906020019092919080359060200190929190505050610127565b005b6100c7600480360360208110156100b157600080fd5b8101908080359060200190929190505050610209565b6040518082815260200191505060405180910390f35b6100e5610226565b604051808273ffffffffffffffffffffffffffffffffffffffff1673ffffffffffffffffffffffffffffffffffffffff16815260200191505060405180910390f35b6000809054906101000a900473ffffffffffffffffffffffffffffffffffffffff168073ffffffffffffffffffffffffffffffffffffffff163373ffffffffffffffffffffffffffffffffffffffff161415156101ec576040517f08c379a00000000000000000000000000000000000000000000000000000000081526004018080602001828103825260168152602001807f53656e646572206e6f7420617574686f72697a65642e0000000000000000000081525060200191505060405180910390fd5b816001600085815260200190815260200160002081905550505050565b600060016000838152602001908152602001600020549050919050565b6000809054906101000a900473ffffffffffffffffffffffffffffffffffffffff168156fea165627a7a723058201e40003141a7d52de6d949627e0a758929bfbc4028e6692b7a950d1162fe786c0029",
  "source": "pragma solidity >=0.4.22 <0.6.0;\n\ncontract UserRegistry {\n  address public owner = msg.sender;\n\n  mapping(bytes32=>bytes32) registry;\n\nmodifier onlyBy(address _account)\n    {\n        require(\n          msg.sender == _account,\n           \"Sender not authorized.\"\n           );\n        _;\n    }\n\n  function setRole(bytes32 addr, bytes32 role) public onlyBy(owner) {\n    registry[addr] = role;\n  }\n\n  function getRole(bytes32 addr) public view returns(bytes32) {\n    return registry[addr];\n  }\n}\n",
  "sourcePath": "/home/user/Project_main/secretWeapon/contracts/UserRegistry.sol",
  "compiler": {
    "name": "solc",
    "version": "0.5.3+commit.10d17f24.Emscripten.clang"
  },
  "schemaVersion": "3.0.0-beta.2",
  "updatedAt": "2019-06-13T13:27:33.298Z",
  "devdoc": {
    "methods": {}
  },
  "userdoc": {
    "methods": {}
  }
}